:020000040800F2
:100000002810002005010008CF1000089D100008EE
:10001000CD100008F1090008B1150008000000002B
:1000200000000000000000000000000013120008A3
:100030005D0A000800000000D11000081512000839
:100040001F0100081F0100081F0100081F01000810
:100050001F0100081F0100081F0100081F01000800
:100060001F0100081F0100081F0100081F010008F0
:100070001F0100081F0100081F0100081F010008E0
:100080001F0100081F0100081F0100081F010008D0
:100090001F0100081F0100081F0100081F010008C0
:1000A0001F0100081F0100081F0100081F010008B0
:1000B0001F0100081F0100081F0100081F010008A0
:1000C0001F0100081F0100081F0100081F01000890
:1000D0001F0100087514000889140008091500089C
:1000E0001F0100081F0100081F010008DFF810D0E1
:1000F00000F038FC00480047F5240008AFF300800A
:10010000281000200648804706480047FEE7FEE723
:10011000FEE7FEE7FEE7FEE7FEE7FEE7FEE7FEE7B7
:1001200067120008ED000008202A04DB203A21FABB
:1001300002F00021704721FA02F3D040C2F1200200
:100140009140084319467047D2B201E000F8012BF4
:10015000491EFBD270470022F6E710B513460A4647
:1001600004461946FFF7F0FF204610BD30B505469E
:100170002A460B4612F8010B13F8014B08B1A042B6
:10018000F8D01CB1002802D06D1CF1E7284630BD24
:10019000F0B480EA0102D40F4200B2EB410F02D268
:1001A0000246084611464A0042D0C30DDDB2C1F3F3
:1001B000C752AD1A202D35DAC1F3160141F4000201
:1001C00004B15242C5F1200602FA06F12A41104458
:1001D000B3EBD05F23D0C4B1012DA0EBC35009DC39
:1001E000F0BC4FF0004202EAC352DBB200F500005F
:1001F00000F015BB400000F1807000EBC350A0F18F
:10020000807040EAD170490009E0490841EAC071B4
:10021000A0EBC35000F50000400800EBC350F0BC59
:1002200000F0F4BA6142012202EB4101001BF6E743
:10023000F0BC704781F00041AAE780F00040A7E7DA
:1002400080EA010210B502F00043400022D04A00CB
:100250001FD0010E01EB1261C0F35600C2F356022B
:1002600040F4000042F40002A0FB022000047F39A9
:10027000140400D0401C50EA124001D44000491E32
:10028000C2B20C0604EBD010401C4008802A02D0F9
:1002900003E0002010BD20F00100002900DA00205A
:1002A000184310BD30B480EA010202F0004530F07E
:1002B000004221F0004013D090B1C30DD40DC2F321
:1002C0001601C0F31600E41A41F4000140F40002E4
:1002D0007D34914201D3641C00E04900002C02DA15
:1002E00030BC002070474FF400000023914201D33E
:1002F000891A034340084FEA4101F7D151B19142B5
:1003000002D14FF0004105E002D24FF0010101E0BF
:100310006FF0010103EBC450284430BC00F076BA02
:100320002DE9FE4F804681EA0300C00F0C46009085
:1003300021F0004123F00045B8EB0200A94105D2AD
:100340004046214690461C460B46024623F000409C
:10035000104347D0270DC7F30A00C3F30A51029098
:10036000401A019040286BDAC3F3130040F4801B5D
:100370000098924620B10023D2EB030A63EB0B0BEB
:1003800001985946C0F14002504600F01EFA064658
:100390000D4650465946019A00F026FA10EB080027
:1003A0006141002487EA115284EAE7731A4340D07E
:1003B000009A62B3019A012A4FEA075215DC001B2A
:1003C00061EB02014FF0004202EA0752CDE9004220
:1003D000001C41F5801132462B4600F05DFA03B057
:1003E000BDE8F08F40462146F9E7001B61EB0201B2
:1003F000001C41F5801300185B412018A2F500177E
:1004000047EB030140EAD570B6196D4111E06D0864
:100410004FEA360645EAC0754FEA0752001B61EB0A
:100420000201001C41F5801149084FEA3000001913
:10043000514132462B4603B0BDE8F04F00F01DBAE3
:100440000098012240000023D0EB020263EBE0732E
:10045000009821464FEAE074B8EB000061EB04011C
:10046000E9E783F000435BE781F0004158E72DE9BD
:10047000FE4F81EA030404F0004421F0004100949F
:100480004FF0000B23F0004350EA01045ED052EA23
:1004900003045BD0C3F30A54C1F30A552C44A4F2FD
:1004A000F3340194A0FB0254C1F3130141F4801111
:1004B000C3F3130343F4801301FB024400FB034E18
:1004C000840A970A44EA815447EA8357A4FB0768E1
:1004D00002958D0A05FB07854FEA932C04FB0C540B
:1004E0002705029D4FEA065847EA1637B5EB08057F
:1004F0006EEB070C870E920E47EA811742EA8312D1
:10050000A7FB0201B6EB0B0164EB00042B0D43EAE1
:100510000C335E1844EB1C50DA465146E7FB0201EF
:10052000C5F313044FEA0B3343EA14534FEA043282
:10053000019C43EA0603A4F10C040294009CCDE95B
:1005400000B400F0A9F903B0BDE8F08F0020014627
:10055000F9E72DE9F04D81EA030404F0004B21F0A6
:10056000004514464FF0000A23F0004150EA05020E
:1005700020D054EA01021DD0C5F30A570246C5F344
:100580001303C1F31300C1F30A5640F4801543F47A
:100590008013A7EB0608101BD64608F2FD3873EB54
:1005A000050002D308F1010801E092185B41B8F19F
:1005B000000F03DA00200146BDE8F08D00204FF463
:1005C0008011064684460EE0171B73EB050705D322
:1005D000121B63EB050306434CEA010C49084FEA82
:1005E000300092185B4150EA0107EDD152EA030056
:1005F00012D082EA040083EA0501084305D0101BEB
:10060000AB4106D20122002306E000224FF0004356
:1006100002E06FF0010253101AEB06004CEB085198
:1006200010EB0A0041EB0B01BDE8F04D00F025B9DD
:1006300070B521F0004303430CD0C1F30A550024E8
:10064000D5EB040564EB0403D617AD1AB34102DB06
:100650000020014670BD201841EB025170BD962369
:100660000022114600F0DBB80EB540F23341029192
:100670000021CDE900110A460B4600F00DF903B048
:1006800000BD00F0004220F00040C10DC0F3160094
:1006900040F400007F2901DA00207047962903DC2E
:1006A000C1F19601C84001E096398840002AF4D093
:1006B00040427047C1F30A5210B5C1F3130140F232
:1006C000FF3341F480119A4201DA002010BD40F25C
:1006D00033439A42A2F2334203DC5242FFF724FD35
:1006E00010BD904010BD00F0004230F000400AD034
:1006F000C10D01F56071C0F3160042EA0151C20854
:1007000040071143704700200146704730B5041E72
:1007100071F1000404DB4FF00044404264EB01013E
:10072000141E73F1000405DB1C464FF000435242D7
:1007300063EB0403994208BF904230BD30B50B46CD
:10074000014600202022012409E021FA02F59D4201
:1007500005D303FA02F5491B04FA02F52844151ED5
:10076000A2F10102F1DC30BD2DE9F05F0546002069
:1007700092469B4688460646814640241BE0284612
:10078000414647462246FFF7CFFC53465A46C01A19
:10079000914110D311461846224600F016F82D1A42
:1007A00067EB01084F4622460120002100F00DF8BA
:1007B00017EB00094E41201EA4F10104DFDC48467E
:1007C00031462A464346BDE8F09F202A04DB203A02
:1007D00000FA02F1002070479140C2F1200320FA94
:1007E00003F3194390407047202A06DBCB17203AC9
:1007F00041FA02F043EAE07306E041FA02F3D04026
:10080000C2F1200291400843194670470029A8BF51
:100810007047401C490008BF20F00100704710B429
:10082000B0FA80FC00FA0CF050EA010404BF10BCDE
:10083000704749B1CCF1200421FA04F411FA0CF10B
:1008400018BF012121430843A3EB0C01CB1D4FEA44
:1008500000614FEA102042BF002010BC704700EB3F
:10086000C35010440029A4BF10BC7047401C49006D
:1008700008BF20F0010010BC704710B5141E73F1C2
:10088000000408DA401C41F1000192185B411A4350
:1008900001D120F0010010BD2DE9F04D92469B469C
:1008A00011B1B1FA81F202E0B0FA80F22032904642
:1008B000FFF78BFF04460F4640EA0A0041EA0B01AE
:1008C00053465A46084313D0114653EA010019D043
:1008D000C8F140025046FFF727FC05460E46504639
:1008E00059464246FFF771FF084305D0012004E056
:1008F00020463946BDE8F08D0020054346EAE07603
:100900002C4337430A986305E40AA0EB0800002251
:10091000FD0A44EA47540A3002D500200146E9E7BF
:10092000010510196941DDE9084500196941BDE873
:10093000F04DA2E7C1F30A52C1F3130140F2FF33B5
:1009400041F480119A4202DA00200146704740F2D9
:1009500033439A42A2F2334202DC5242FFF7E4BB35
:10096000FFF733BF064C074D06E0E06840F0010397
:1009700094E8070098471034AC42F6D3FFF7BAFB6F
:10098000702900089029000810B500880C4640BA6C
:10099000FFF76AFE4FF03332034BFFF7DAFDFFF744
:1009A00089FE2080002010BD3333F33F10B504468C
:1009B000012001F099FCB42001F030FB0223224613
:1009C0004721012001F0ECFB012001F0B5FC0020E3
:1009D00010BD10B5012001F0FDFAB42001F01EFB9E
:1009E000102001F0F7FABDE81040B42001F016BB6A
:1009F000FEE730B50346002208463124995C4840A2
:100A00000021050602D584EA400000E04000491CB0
:100A1000C9B2C0B20829F4D3521CD2B2022AEDD313
:100A200030BD00000948416941F0010141610948B8
:100A30000749016108494161C26042F2A0518160E9
:100A4000816841F0010181607047000000100240A0
:100A50004C240140000002402200002070470000AA
:100A6000064810B50088FFF7FAFD054A054901F070
:100A700009FD02492239486110BD00002200002012
:100A8000000020410000FA4370B5044600F00EF863
:100A90000546601C02D004480078044400F006F8C3
:100AA000401BA042FAD370BD60000020014880685E
:100AB00070470000600000200248816802781144FD
:100AC0008160704760000020074810B5016841F060
:100AD00010010160032000F05FF8002000F006F82C
:100AE00000F024F8002010BD0020024070B50D4D2C
:100AF00004464FF47A712878B1FBF0F00A4909688E
:100B0000B1FBF0F000F0B6FA48B9102C07D2002281
:100B10002146501E00F020F800206C6070BD0120BE
:100B200070BD0000600000206C000020094808B57E
:100B3000816941F001018161816901F00101009148
:100B4000C16941F08051C161C06900F080500090DE
:100B500008BD000000100240F0B40E4B1B680C46AC
:100B6000C3F30223C3F10705042D00D90425191D81
:100B7000072901D2002300E0DB1E012606FA05F159
:100B8000491E214099409E40761E16403143F0BCDC
:100B900000F04DBD0CED00E0064900F007020868CA
:100BA0004FF6FF03184040EA0220034A1043086052
:100BB000704700000CED00E00000FA052DE9F04759
:100BC0000F46050061D0434E306800F00700B84280
:100BD00009D2306820F0070038433060306800F0F8
:100BE0000700B84251D128683B4C810712D5400715
:100BF00003D5606840F4E06060602878000703D5A2
:100C0000606840F4605060606068A96820F0F0009F
:100C1000084360602878C00728D06868012810D091
:100C20002168022810D0890700292EDA616821F096
:100C3000030101436160FFF739FF804641F28839C3
:100C40000DE021688903EFE78901EDE7FFF72EFF4B
:100C5000A0EB0801494502D90320BDE8F087606890
:100C6000696800F00C00B0EB810FEFD1306800F044
:100C70000700B8420BD9306820F0070038433060D5
:100C8000306800F00700B84201D00120E5E728787D
:100C9000400705D56068E96820F4E06008436060BB
:100CA0002878000706D56068296920F4605040EA7A
:100CB000C100606000F018F86168084AC1F30311D0
:100CC000515CC8400649086006480068FFF70EFFFF
:100CD0000020C2E700200240001002406029000806
:100CE0006C0000206400002012A185B00FC98DE8BF
:100CF0000F0014A0144A006804905168134801F0D2
:100D00000C03042B10D0082B0ED1C1F38343C9036D
:100D10001DF803000AD5516804AAC1F34041515C93
:100D20000A4A5043B0FBF1F005B070470849484308
:100D3000FAE7000002030405060708090A0B0C0D78
:100D40000E0F1010010200000010024000127A0085
:100D500000093D002DE9F84F040070D02078C04D07
:100D6000C00749D06868C0F38100012807D06868CF
:100D7000C0F38100022809D16868C00306D528683D
:100D8000800339D560680028E7D035E06068B0F5A9
:100D9000803F0BD010B1B0F5A02F11D0286820F4FF
:100DA00080302860286820F4802002E0286840F421
:100DB00080302860606890B1FFF778FE06460AE050
:100DC000286840F480202860F0E700BFFFF76EFE3F
:100DD000801B642873D828688003F7D50CE0FFF7E0
:100DE00065FE064605E000BFFFF760FE801B642835
:100DF000F0D828688003F7D420789A4E80074FF007
:100E000001094FF0000839D5686810F00C0F07D0C1
:100E10006868C0F38100022809D16868C00306D45D
:100E20002868800714D52069012808D110E02069BE
:100E3000B0B1C6F80090FFF739FE074605E00AE1B9
:100E4000FFF734FEC01B0228C4D828688007F7D5F6
:100E50002868616920F0F80040EAC10028600DE0D0
:100E6000C6F80080FFF722FE074604E0FFF71EFEEB
:100E7000C01B022823D828688007F7D420780007F1
:100E80002CD57948A169D9B1C0F80090FFF70EFEC2
:100E9000074604E0FFF70AFEC01B02280FD8686A65
:100EA0008007F7D571484FF4FA510068B0FBF1F0B4
:100EB000009000BF0098411E0091FAD20EE080E041
:100EC000C0F80080FFF7F2FD074604E0FFF7EEFDF3
:100ED000C01B022875D8686A8007F7D420784007BD
:100EE00060D5E8690027C00008D4E86940F0805068
:100EF000E861E869012700F0805000905C480168D3
:100F0000C90513D40168834641F480710160FFF77D
:100F1000CDFD824606E000BFFFF7C8FDA0EB0A004A
:100F200064284ED8DBF80000C005F5D5E06801283C
:100F30000AD008B1052813D0286A20F001002862E1
:100F4000286A20F0040002E0286A40F001002862CC
:100F5000E06841F2883B98B1FFF7A8FD82460BE0BC
:100F6000286A40F004002862EEE700BFFFF79EFD0C
:100F7000A0EB0A0159455AD8286A8007F6D50CE03B
:100F8000FFF794FD824605E0FFF790FDA0EB0A0114
:100F900059454CD8286A8007F6D41FB1E86920F07B
:100FA0008050E861E06988B36968C1F38101022972
:100FB00044D00228C6F8608004D0FFF777FD0446CD
:100FC00038E034E0FFF772FD074604E0FFF76EFDFE
:100FD000C01B02282BD828688001F7D4206AB0F5FE
:100FE000803F05D16868A16820F40030084368603C
:100FF000D4E908010843696821F474110843686062
:10100000C6F86090FFF752FD044606E025E000BFF9
:10101000FFF74CFD001B022809D828688001F7D58E
:101020001BE000BFFFF742FD001B022802D903208E
:10103000BDE8F88F28688001F4D40EE00128F7D0CD
:101040006868226A00F48031914204D1616A00F438
:101050007010884201D00120EAE70020E8E7000094
:101060000010024000004242800442426C00002016
:101070000070004010B5401EB0F1807F01D3012008
:1010800010BD4FF0E02460610F21601700F0CFFA2F
:101090000020A06107202061002010BDFEE70000B5
:1010A000094808B5816941F020018161816901F039
:1010B00020010091816941F008018161806900F09F
:1010C0000800009008BD000000100240FEE77047D5
:1010D00070470000012804D0022804D0032804D05F
:1010E00004E0054A02E0054A00E0054A10680122D2
:1010F0008A401040C840704708080140080C014071
:10110000081001402DE9F0410E4615460446FF2126
:10111000FFF76FFCA178884206D1FF21E01CFFF7A2
:1011200068FC6179884202D00120BDE8F081208806
:1011300040BAFFF794FA0C4F3946FFF7B3F80B4962
:10114000FFF77EF80A49FFF723F83060B4F8030090
:1011500040BAFFF784FA3946FFF7A4F80549FFF7CC
:101160006FF828600020E0E700FF7F4700002F4372
:10117000000034C20000C84210B5012001F0B4F8EC
:101180008821012000F064FFBDE8104042F22020D9
:1011900000F01EB870B5044615460E46012001F059
:1011A000A3F88821012000F053FF4FF4604000F0C5
:1011B0000FF8012001F098F8641CE1B22B4632468A
:1011C000012000F0EDFFBDE87040012001F0B4B84F
:1011D00008B5010A8DF800108DF801000222694659
:1011E000012001F0D9F8012008BD10B5012001F05F
:1011F0007BF88821012000F02BFF43F2A200FFF7CB
:10120000E7FF1420FFF740FCBDE81040012001F08B
:1012100093B87047FFF750BC30B58FB028216846AF
:10122000FEF799FF14210AA8FEF795FF0121080493
:10123000CDE900100024029402250491CDE9075065
:101240004FF4E01009906846FFF784FD0F20CDE9C8
:101250000A056802CDE90C4002210AA80E94FFF7A6
:10126000ADFC0FB030BD704700B50B46898839B171
:1012700000F01EF8014698885DF804EB00F04AB8CB
:1012800000F016F819885054D98859B11A8919886C
:10129000904204D1002018800120588000BD491CD4
:1012A000198000BD1888401C18805889988100BD9D
:1012B000014601280CD0022911D0032807D10B4880
:1012C00001688906FCD50948001D0068C0B2704756
:1012D000074801688906FCD50548001DF5E7054863
:1012E00001688906FCD50348001DEEE70048004070
:1012F000003801400044004030B50C46054600234C
:1013000003E0284600F006F85B1CE15C0029F8D1F8
:1013100030BD000001280BD0022810D0032806D1D0
:101320000A4802685206FCD50848001D0160704753
:10133000074802685206FCD50548001DF6E7054837
:1013400002685206FCD50348001DEFE70048004044
:10135000003801400044004070B5044600F0DEF85B
:1013600040490546886940F001008861012C29D078
:10137000022C4DD0032C73D172B6C86940F4802082
:10138000C861022303220A21184601F041F8022312
:1013900000220B21184601F03BF833480560001D80
:1013A000016841F008010160016841F00401016039
:1013B000016841F400510160016841F020010160C1
:1013C00027204AE072B6886940F480408861022391
:1013D00003220921012001F01BF8022300220A2127
:1013E000012001F015F821480560001D016841F059
:1013F00008010160016841F004010160016841F4E5
:1014000000510160016841F020010160252024E0C5
:1014100072B6C86940F40030C8610223032219463D
:10142000012000F0F5FF022300220321012000F03B
:10143000EFFF0F480560001D016841F008010160E1
:10144000016841F004010160016841F4005101604C
:10145000016841F020010160262000F0DBF862B64F
:1014600070BD0000001002400848004008380140EC
:1014700008440040024A03490120FFF7F5BE00007E
:10148000700000202A0000203EB5164A16490220AE
:10149000FFF7EAFE144D6888012821D113A1FFF758
:1014A0002BFF10490120FFF727FF16A10120FFF7AE
:1014B00023FFA5F138042069FFF7E3F8A26903468A
:1014C0006088A1888DE8070006490220E26801F0E3
:1014D000EDF800206880BDE83E40024801F0DCB82D
:1014E0003EBD000058040020380000204E6F6920E7
:1014F00064756E672074696E206E68616E206C6121
:10150000203A09000A000000024A03490320FFF7BD
:10151000ABBE000040080020460000202DE9F04747
:101520000A461E4900241E4D012801D11D4D4900C7
:101530004FEA0218B1FBF8F63046FFF795F8074678
:1015400089464046FFF790F802460B46204629465A
:10155000FEF7FFFF3A464B46FEF783FF0422FFF7F4
:1015600067F80F460546FFF7A5F80446FFF77CF835
:101570002A463B46FEF778FF00220B4BFEF777FF2B
:1015800000220A4BFFF7C2F804D2641C102C01D1D0
:101590000024761C04EB0610BDE8F08700512502FC
:1015A000882A8141882A9141000059400000494021
:1015B000FEE70000012804D0022804D0032804D04C
:1015C00004E0074B02E0074B00E0074B186812B13C
:1015D0008A40104302E001228A409043186070471D
:1015E0000C0801400C0C01400C1001400FB4084BDA
:1015F00010B504A902AA039800F0FAF8044602A95B
:10160000002000F078FC204610BC5DF814FB0000C0
:10161000F71E0008002809DB00F01F02012191409D
:101620004009800000F1E020C0F800117047090770
:10163000090E002804DB00F1E02080F80014704758
:1016400000F00F0000F1E02080F8141D704702E068
:1016500008C8121F08C1002AFAD17047704700203D
:1016600001E001C1121F002AFBD170472DE9FF5F85
:1016700082B00021DDE90430020DDDF840B0034303
:1016800018D044F61050A2F2FF32424315141198BC
:1016900001281FD0A5EB0B00401C5FEA000A4FF0A9
:1016A00000064E4FDFF83891B046504615D5CAF1C6
:1016B000000413E0119801244AA3012801D16FEA24
:1016C0000B010298119AC0E90031C0E9024206B04C
:1016D000BDE8F09FCBF10000DFE704460021404A5F
:1016E000491842EB0450CDE9001012E0E00707D0A2
:1016F00032463B4640464946FEF7B9FE804689469B
:1017000032463B4610461946FEF7B1FE06460F46E6
:101710006410002CEAD1DDE90401DDE90023BAF10F
:10172000000F06DAFEF7A3FE42464B46FEF79FFE89
:1017300005E0FEF70EFF42464B46FEF70AFF044661
:101740000E460022284BFEF7E1FF03D84FF0FF3092
:10175000014607E00022254B20463146FEF7E0FD1A
:10176000FFF7E8F8102409E0002C0ADB0A22002326
:10177000FEF7FAFF039B30321A55641E50EA01024D
:10178000F2D1641C039AC4F111031444119A012A82
:1017900003D0012208430DD10AE0084304D0002001
:1017A0004FF0110B119072E7A3EB0B056D1E0DE0CE
:1017B0005B4504DD4FF0000205F1010504E003DAAA
:1017C0004FF00002A5F10105002AECD00298119912
:1017D000C0E90231C0E9004579E70000000014408B
:1017E0000000F03F300000000000F0430000E03F48
:1017F0002DE9FF4F95B09A46884606460025EEE152
:10180000252877D100242746F94A0121039400E0D6
:10181000044316F8013F203B01FA03F01042F7D1D0
:1018200030782A2811D06FF02F033078A0F13002E1
:10183000092A16D8039A44F0020402EB820203EB51
:1018400042021044761C0390EFE758F8042B0392F1
:10185000002A03DA504244F40054039044F0020496
:10186000761C30782E2816D116F8010F44F00404A7
:101870002A280DD06FF02F023078A0F13003092B09
:1018800009D807EB870302EB4303C718761CF3E77D
:1018900058F8047B761C30786C280FD006DC4C2876
:1018A00017D068280DD06A2814D104E0742810D00D
:1018B0007A280FD10DE044F400140AE044F48014B7
:1018C00001E044F440147278824202D104F580149D
:1018D000761C761C307866280BD013DC582877D01D
:1018E00009DC002875D04528F6D04628F4D04728D2
:1018F0001AD193E118E0632835D0642879D065289F
:1019000012D18BE1702873D008DC6728F1D06928E8
:101910006FD06E280DD06F2806D1ACE073282CD084
:10192000752874D0782853D05246179990476D1C6B
:1019300054E1C4F30250022809D003280DD0D8F88E
:10194000001004280DD00D6008F1040846E1D8F815
:101950000010EA17C1E90052F6E7D8F800100D8030
:10196000F2E70D70F0E718F8041B8DF80010002066
:101970008DF80100EB46012003E058F804BB4FF05E
:10198000FF3061074FF0000102D40DE009F10101C1
:101990008946B9420FDA8145F8DB1BF809100029A6
:1019A000F4D108E009F1010189468142FADB1BF814
:1019B00009100029F6D103985346A0EB09072146E8
:1019C0003846179A00F080FA284400EB090507E032
:1019D00044E008E10DE01BF8010B524617999047CF
:1019E000B9F10109F7D2534621463846179AF2E079
:1019F00039E00A21C4F302524FF0000B0091022A91
:101A000006D058F8040BC117032A09D00AE023E0D6
:101A100008F1070020F00702F2E80201904605E015
:101A200000B2C117042A01D140B2C117002906DA59
:101A30000A460021404261EB02012D2202E022050C
:101A400004D52B228DF80420012203E0E20701D007
:101A50002022F7E7914657E00A2100E010214FF0DD
:101A6000000B00910BE010214FF0000B44F0040438
:101A70000827009103E008204FF0000B0090C4F30A
:101A80000252022A05D058F8040B0021032A08D07C
:101A900008E008F1070020F00702F2E80201904692
:101AA00003E080B2042A00D1C0B24FF0000922073F
:101AB0002AD53278702A07D0DDF800C08CF0100CDF
:101AC0005CEA0B0C05D00EE040228DF804200122C8
:101AD00008E050EA010306D030238DF804308DF879
:101AE000052002229146009B83F0080353EA0B0372
:101AF0000AD150EA010201D1620705D530228DF8E2
:101B000004204FF001097F1E3278582A04D039A2F0
:101B10000C920CAA02920BE03BA2F9E75B46009AFA
:101B2000FEF722FE0C9B9B5C029A521E02921370DF
:101B300050EA0102F2D1029804A9081A00F1200B20
:101B4000600702D524F4803400E001275F4502DD00
:101B5000A7EB0B0000E0002000EB0B0100900398C6
:101B60004944401A0390E00306D453462146179A8D
:101B7000039800F0A9F90544002706E001A85246A1
:101B8000C05D179990476D1C7F1C4F45F6DBE00345
:101B90000CD553462146179A039800F095F9054451
:101BA00004E030205246179990476D1C0099481E5A
:101BB00000900029F5DC08E002980299524600786E
:101BC000491C0291179990476D1CBBF10001ABF1C4
:101BD000010BF1DC5BE100F065F90544761C30781F
:101BE00000287FF40DAE19B02846BDE8F08F000044
:101BF00009280100303132333435363738396162E3
:101C000063646566000000003031323334353637A6
:101C1000383941424344454600000000600700D483
:101C2000062708F1070020F00700F0E802238046AD
:101C300003F0004C5FEA0C0001D097A009E02005FA
:101C400001D596A005E0E00701D095A001E0AFF234
:101C50004C001390307823F0004365280CD006DC4C
:101C6000452809D046281DD047287FD13BE066286B
:101C700018D067287AD136E00021112F01DB11201E
:101C800000E0781CCDE9000104A90CA8FFF7EEFCE8
:101C9000DDE90D010C9A4FF0000B07F101091092DC
:101CA00000914EE04FF000400097CDE9011004A9EB
:101CB0000CA8FFF7DBFCDDE90D020C9B0F994FF040
:101CC000000B91461093009211B9791C00EB0109A9
:101CD000B7EB090003D4C0F1FF3B07F10109A9EB01
:101CE0000700019042E0012F00DA01270021112FA7
:101CF00001DD112000E03846CDE9000104A90CA85F
:101D0000FFF7B4FCDDE90D010C9A00914FF0000BD8
:101D1000B946109221070FD4009A4A4503DA91463A
:101D200001E0A9F10109B9F1010F05DD109AA9F14E
:101D30000101515C3029F4D0B84202DA10F1040FED
:101D400003DA0121CDE9011010E0002803DC83440F
:101D5000A9EB000102E0411C494500DD8946A0EBEA
:101D60000B00401C01904FF000400290200705D46A
:101D70000198484502DB4FF0FF30019000208DF8BC
:101D80004B0002980DF14B07B0F1004F25D0022017
:101D90000C902B200D90029800280CDA4042029003
:101DA0002D200D9007E00A210298FEF7C7FC303184
:101DB000029007F8011D0C99481E0C900029F2DCD6
:101DC00002980028EFD1791E0D980870307800F045
:101DD000200040F0450007F8020D11A8C01BC01DEF
:101DE00002901398007800B1012000EB09010198DE
:101DF00001EBE071029801440398401A401E0390E1
:101E0000E00306D453462146179A039800F05CF885
:101E100005441398007818B15246179990476D1CE5
:101E2000E00323D553462146179A039800F04CF857
:101E300005441BE0BBF1000F07DB0098584504DDAB
:101E40001098179910F80B0001E0179930205246AE
:101E5000904701980BF1010B401E05F1010501901F
:101E600004D12E205246179990476D1CB9F10001FC
:101E7000A9F10109DEDC05E017F8010B52461799BC
:101E800090476D1C0299481E02900029F4DC5346CD
:101E90002146179A03989EE62D0000002B000000B3
:101EA000200000002DE9F041044600251E4617469B
:101EB000880404D405E039462020B0476D1C641E18
:101EC000F9D52846BDE8F0812DE9F041044600250A
:101ED0001E469046C80301D5302700E0202788041D
:101EE00004D505E041463846B0476D1C641EF9D55F
:101EF0002846BDE8F0810A68531C0B6010707047DB
:101F00002DE9F04115460F460646002419E0295DEB
:101F1000082903D200231A4601200EE00A2905D21F
:101F20000839002389B21A46022006E0102906D299
:101F30000A39002389B21A46032000F069FA641CAA
:101F4000E4B2BC42E3D300211F48204C012E21D033
:101F5000022E1DD1826940F201431A4382611C4E58
:101F60003160306840F0010030606420FEF78CFD85
:101F7000174928782C310860306840F00200306042
:101F8000306840F001003060206840F480702060CC
:101F9000BDE8F081826940F201231A438261216029
:101FA000206840F0010020606420FEF76DFD0749C5
:101FB00028782C310860206840F0020020602068FA
:101FC00040F001002060DFE70010024008240140DB
:101FD0000828014002464621012000F075B90000A2
:101FE0004FF0E020016921F004010161084809492E
:101FF0000068B0FBF1F0C1B2074801EB410201708B
:10200000C2EBC1114FF6FF7202EAC1014180704775
:102010006C00002000127A005C0000200B49498807
:1020200048434FF0E021486100228A61086940F08E
:10203000010008610869C30701D0C003FAD5086927
:1020400020F0010008618A61704700005C000020F8
:1020500008B5012802D0022813D024E013480160FB
:10206000001D01688907FCD500681049083109681E
:1020700008438DF800000D48103801684905FCD56B
:1020800011E00B480160001D01688907FCD500685C
:1020900007490831096808438DF8000004481038E2
:1020A00001684905FCD5012008BD0000105400401E
:1020B0001058004070B53649364EB4242525012805
:1020C00036D0022833D1C86940F48000C8610323A8
:1020D0001A460A21022000F09BF903231A460B211D
:1020E000022000F095F9706870602B48016841F09B
:1020F00001010160016841F400410160016821F4BF
:1021000000410160011D0A6842F024020A60224970
:102110001C310C60204908310A6842F480420A6090
:102120001D4920310D60016841F00101016070BD61
:10213000C86940F40010C86103231A460621022032
:1021400000F066F903231A460721022000F060F927
:10215000706870601148016841F001010160016818
:1021600041F400410160016821F400410160011D5A
:102170000A6842F024020A6008491C310C600749D1
:1021800008310A6842F480420A6004492031C9E7F4
:102190000010024000000140005800400054004080
:1021A000F0B51C46012810D002287CD1444D44488B
:1021B000083D434F18382E1D012B296047D0316848
:1021C0008907FCD5316839685FE03E4E3D4D083ED9
:1021D0003C4F183D301D012B316005D00168890747
:1021E000FCD5016839681CE001688907FCD52968BD
:1021F00021F48061296001683968296841F400711F
:10220000296001684906FCD5306831E0016849065B
:10221000FCD531681F1BD155296841F480612960C4
:10222000641E022CF2DC01684906FCD531681F1BD4
:10223000D155296821F480612960296841F4007131
:102240002960641E01684906FCD5306834E03168B5
:102250008907FCD5016821F4806101603168396823
:10226000016841F40071016030684006FCD52868BF
:10227000E11A22E031684906FCD529681F1BD155B7
:10228000016841F480610160641E022CF2DC316857
:102290004906FCD529681F1BD155016821F48061CE
:1022A0000160016800E009E041F400710160641E12
:1022B00030684006FCD52868191B5054F0BD00005A
:1022C000185800401854004010B50B46044600F062
:1022D0000BF819462046FFF7BBFE2046BDE810402C
:1022E000114600F039B80000012812D002280FD1A1
:1022F0000F48016841F48061016001680160016874
:1023000041F4807101600A4814300168C907FCD0AB
:1023100070470848016841F480610160016841F438
:1023200080710160034814300168C907FCD0704710
:102330000058004000540040012807D0022804D172
:102340000348016841F40071016070470148F8E7F3
:102350000058004000540040012802D002280BD051
:1023600014E00B4802681206FCD5094A121F1160DE
:1023700001684907FCD509E0064802681206FCD549
:10238000044A121F116001684907FCD501207047FB
:10239000145400401458004030B5012816D00228CB
:1023A0002CD1194803681B06FCD5174C164B241F6B
:1023B000143B22B305682D06FCD511F8015B25609E
:1023C000521ED2B21D686D05FCD5F2E70F480368B6
:1023D0001B06FCD50D4C0D4B241F143B5AB1056850
:1023E0002D06FCD511F8015B2560521ED2B21D6886
:1023F0006D05FCD5F2E701684907FCD430BD0168E2
:102400004907FCD430BD000014580040145400406B
:1024100070B50026072902D9083989B20126154C62
:10242000012804D0022808D003280CD012E0A069AB
:1024300040F00400A06110480AE0A06940F00800E4
:10244000A0610E4804E0A06940F01000A0610C48B3
:1024500000EB86052C6888000F268640B4432C606C
:102460008240022000EB8100834028681A43024327
:102470002A6070BD0010024000080140000C0140BD
:10248000001001402DE9F041804614460846FDF752
:10249000D7FE064621460846FDF7D2FE144C0146FB
:1024A00060680746FDF774FE054631463846FDF77D
:1024B0006FFE01462846FDF7F5FE216806460F46E9
:1024C0004046FDF7B7FE3146FDF7BAFE3946FDF747
:1024D0005FFE0746206031464FF07E50FDF7AAFEB2
:1024E0002946FDF7ADFE60603846BDE8F08100008A
:1024F000540000200024FEF7E7FAFEF78DFEFEF7F9
:10250000CFFD0023032219460120FFF781FF00229F
:1025100011460120FFF74EF801210023032208464F
:10252000FFF776FF012100220846FFF743F8022358
:10253000002204211846FFF76BFF0223002203212B
:102540001846FFF765FF022300220F210120FFF745
:102550005FFF022300220C210120FFF759FF4FF4F7
:10256000E13529460120FEF7F7FE29460220FEF755
:10257000F3FEFFF735FD0120FFF79CFDFEF735FE6A
:10258000284AA2F1080001780120FFF7B9FC25498B
:1025900004221A312448FEF745FA6420FFF73EFD75
:1025A00000F05CF821A10120FEF7A6FEFEF7E4FD95
:1025B000012835D01FA10120FEF79EFE0A20FFF75B
:1025C0002DFD4FF4FA70FFF729FDFFF709FDFEF727
:1025D00000FA41F288354FF47A7600BFFEF740FAF0
:1025E000641CAC42FADD00F039F80E48C01FFEF75B
:1025F000DDF90C49891E481FFEF7C6F93046FFF782
:102600000DFD0849062214318820FEF7C3FD054A56
:102610000832111F01F11000FEF774FD0024DDE700
:102620000AA1C8E7080000204C240140536C6176E1
:10263000650A000043687561206B686F69207461EA
:102640006F2064756F632121210000004B686F6962
:102650002074616F206F6B212121000010B50421CF
:102660000220FEF737FD044603210220FEF732FD6B
:1026700004EB40040F210120FEF72CFD04EB800445
:102680000C210120FEF726FD024904EBC000886101
:1026900010BD00000000002000210A4601E0425465
:1026A000491C435C002BFAD1704700002DE9F04132
:1026B0009CB08046DDE923501746229E1C460A4600
:1026C000012812D002281ED003282AD0042836D090
:1026D000052842D006284ED007285AD0082866D0B0
:1026E000092873D00A287ED08FE04DA11046FDF74F
:1026F0003DFD0028F8D03846FDF7F5FF0B460246B1
:1027000049A102957BE04EA11046FDF72FFD002860
:102710007BD03846FDF7E7FF0B4602464AA10295FB
:102720006DE04FA11046FDF721FD00286DD0384621
:10273000FDF7D9FF0B4602464BA102955FE050A181
:102740001046FDF713FD00285FD03846FDF7CBFF9C
:102750000B4602464CA1029551E051A11046FDF7EF
:1027600005FD002851D03846FDF7BDFF0B46024657
:102770004DA1029543E052A11046FDF7F7FC002859
:1027800043D03846FDF7AFFF0B4602464EA10295F7
:1027900035E053A11046FDF7E9FC002835D0384656
:1027A000FDF7A1FF0B4602464FA1029527E054A179
:1027B0001046FDF7DBFC40B33846FDF794FF0B46AF
:1027C000024651A102951AE000E00CE054A1104627
:1027D000FDF7CCFCE8B13846FDF785FF0B46024615
:1027E00051A102950BE056A11046FDF7BFFC60B168
:1027F0003846FDF778FF0B46024653A10295CDE916
:10280000004603A8FEF7F2FE03E00CA103A8FEF7C2
:10281000EDFE03A94046FEF76FFD1CB0BDE8F08158
:102820007472616D31000000252E32662C25642CF7
:1028300025642C2564207472616D310A000000004B
:102840007472616D32000000252E32662C25642CD6
:1028500025642C2564207472616D320A000000002A
:102860007472616D33000000252E32662C25642CB5
:1028700025642C2564207472616D330A0000000009
:102880007472616D34000000252E32662C25642C94
:1028900025642C2564207472616D340A00000000E8
:1028A0007472616D35000000252E32662C25642C73
:1028B00025642C2564207472616D350A00000000C7
:1028C0007472616D36000000252E32662C25642C52
:1028D00025642C2564207472616D360A00000000A6
:1028E0007472616D37000000252E32662C25642C31
:1028F00025642C2564207472616D370A0000000085
:102900007472616D38000000252E32662C25642C0F
:1029100025642C2564207472616D380A0000000063
:102920007472616D39000000252E32662C25642CEE
:1029300025642C2564207472616D390A0000000042
:102940007472616D31300000252E32662C25642CA6
:1029500025642C2564207472616D31300A000000FA
:10296000000000000000000001020304060708093F
:102970009029000800000020700000004E1600089A
:10298000002A000870000020B80F00005E16000842
:10299000040000000000000009040506000000001B
:1029A0000000000000000000000000000000000027
:1029B0000000000000000000000000000000000017
:1029C00001000A00000000000000000000000100FB
:1029D0000A000000000000000000000001000A00E2
:1029E00000000000000000000000000000000000E7
:1029F0000100000010000000000000000024F400AE
:04000005080000ED02
:00000001FF
